{
  "contractName": "Market",
  "abi": [
    {
      "inputs": [],
      "stateMutability": "nonpayable",
      "type": "constructor"
    },
    {
      "anonymous": false,
      "inputs": [
        {
          "indexed": true,
          "internalType": "uint256",
          "name": "listingId",
          "type": "uint256"
        },
        {
          "indexed": true,
          "internalType": "address",
          "name": "owner",
          "type": "address"
        },
        {
          "indexed": false,
          "internalType": "string",
          "name": "name",
          "type": "string"
        },
        {
          "indexed": false,
          "internalType": "string",
          "name": "description",
          "type": "string"
        },
        {
          "indexed": false,
          "internalType": "string",
          "name": "image",
          "type": "string"
        }
      ],
      "name": "ListingCreated",
      "type": "event"
    },
    {
      "inputs": [
        {
          "internalType": "uint256",
          "name": "",
          "type": "uint256"
        }
      ],
      "name": "listings",
      "outputs": [
        {
          "internalType": "string",
          "name": "name",
          "type": "string"
        },
        {
          "internalType": "string",
          "name": "description",
          "type": "string"
        },
        {
          "internalType": "address",
          "name": "owner",
          "type": "address"
        },
        {
          "internalType": "string",
          "name": "image",
          "type": "string"
        }
      ],
      "stateMutability": "view",
      "type": "function"
    },
    {
      "inputs": [],
      "name": "numberOfListings",
      "outputs": [
        {
          "internalType": "uint256",
          "name": "",
          "type": "uint256"
        }
      ],
      "stateMutability": "view",
      "type": "function"
    },
    {
      "inputs": [
        {
          "internalType": "address",
          "name": "_owner",
          "type": "address"
        },
        {
          "internalType": "string",
          "name": "_description",
          "type": "string"
        },
        {
          "internalType": "string",
          "name": "_image",
          "type": "string"
        },
        {
          "internalType": "string",
          "name": "_name",
          "type": "string"
        }
      ],
      "name": "createListing",
      "outputs": [
        {
          "internalType": "uint256",
          "name": "",
          "type": "uint256"
        }
      ],
      "stateMutability": "nonpayable",
      "type": "function"
    },
    {
      "inputs": [
        {
          "internalType": "string",
          "name": "_name",
          "type": "string"
        }
      ],
      "name": "getListing",
      "outputs": [
        {
          "components": [
            {
              "internalType": "string",
              "name": "name",
              "type": "string"
            },
            {
              "internalType": "string",
              "name": "description",
              "type": "string"
            },
            {
              "internalType": "address",
              "name": "owner",
              "type": "address"
            },
            {
              "internalType": "string",
              "name": "image",
              "type": "string"
            }
          ],
          "internalType": "struct Market.Listing[]",
          "name": "",
          "type": "tuple[]"
        }
      ],
      "stateMutability": "view",
      "type": "function"
    },
    {
      "inputs": [],
      "name": "getListings",
      "outputs": [
        {
          "components": [
            {
              "internalType": "string",
              "name": "name",
              "type": "string"
            },
            {
              "internalType": "string",
              "name": "description",
              "type": "string"
            },
            {
              "internalType": "address",
              "name": "owner",
              "type": "address"
            },
            {
              "internalType": "string",
              "name": "image",
              "type": "string"
            }
          ],
          "internalType": "struct Market.Listing[]",
          "name": "",
          "type": "tuple[]"
        }
      ],
      "stateMutability": "view",
      "type": "function"
    }
  ],
  "bytecode": "0x608060405234801561001057600080fd5b50600060018190555061147a806100286000396000f3fe608060405234801561001057600080fd5b50600436106100575760003560e01c80634ae9ec301461005c578063de74e57b1461008c578063e0ba5b44146100bf578063f1b2d6a3146100dd578063f87a8cf8146100fb575b600080fd5b61007660048036038101906100719190610d30565b61012b565b6040516100839190610f75565b60405180910390f35b6100a660048036038101906100a19190610fcd565b610509565b6040516100b69493929190611053565b60405180910390f35b6100c76106f1565b6040516100d491906110bc565b60405180910390f35b6100e56106f7565b6040516100f29190610f75565b60405180910390f35b61011560048036038101906101109190611103565b6109c8565b60405161012291906110bc565b60405180910390f35b60606000805b6001548110156101c5578360405160200161014c91906111fa565b604051602081830303815290604052805190602001206000808381526020019081526020016000206000016040516020016101879190611306565b6040516020818303038152906040528051906020012014156101b25781806101ae9061134c565b9250505b80806101bd9061134c565b915050610131565b5060008167ffffffffffffffff8111156101e2576101e1610c05565b5b60405190808252806020026020018201604052801561021b57816020015b610208610af5565b8152602001906001900390816102005790505b5090506000805b6001548110156104fd578560405160200161023d91906111fa565b604051602081830303815290604052805190602001206000808381526020019081526020016000206000016040516020016102789190611306565b6040516020818303038152906040528051906020012014156104ea576000808281526020019081526020016000206040518060800160405290816000820180546102c190611240565b80601f01602080910402602001604051908101604052809291908181526020018280546102ed90611240565b801561033a5780601f1061030f5761010080835404028352916020019161033a565b820191906000526020600020905b81548152906001019060200180831161031d57829003601f168201915b5050505050815260200160018201805461035390611240565b80601f016020809104026020016040519081016040528092919081815260200182805461037f90611240565b80156103cc5780601f106103a1576101008083540402835291602001916103cc565b820191906000526020600020905b8154815290600101906020018083116103af57829003601f168201915b505050505081526020016002820160009054906101000a900473ffffffffffffffffffffffffffffffffffffffff1673ffffffffffffffffffffffffffffffffffffffff1673ffffffffffffffffffffffffffffffffffffffff16815260200160038201805461043b90611240565b80601f016020809104026020016040519081016040528092919081815260200182805461046790611240565b80156104b45780601f10610489576101008083540402835291602001916104b4565b820191906000526020600020905b81548152906001019060200180831161049757829003601f168201915b5050505050815250508383815181106104d0576104cf611395565b5b602002602001018190525081806104e69061134c565b9250505b80806104f59061134c565b915050610222565b50819350505050919050565b600060205280600052604060002060009150905080600001805461052c90611240565b80601f016020809104026020016040519081016040528092919081815260200182805461055890611240565b80156105a55780601f1061057a576101008083540402835291602001916105a5565b820191906000526020600020905b81548152906001019060200180831161058857829003601f168201915b5050505050908060010180546105ba90611240565b80601f01602080910402602001604051908101604052809291908181526020018280546105e690611240565b80156106335780601f1061060857610100808354040283529160200191610633565b820191906000526020600020905b81548152906001019060200180831161061657829003601f168201915b5050505050908060020160009054906101000a900473ffffffffffffffffffffffffffffffffffffffff169080600301805461066e90611240565b80601f016020809104026020016040519081016040528092919081815260200182805461069a90611240565b80156106e75780601f106106bc576101008083540402835291602001916106e7565b820191906000526020600020905b8154815290600101906020018083116106ca57829003601f168201915b5050505050905084565b60015481565b6060600060015467ffffffffffffffff81111561071757610716610c05565b5b60405190808252806020026020018201604052801561075057816020015b61073d610af5565b8152602001906001900390816107355790505b50905060005b6001548110156109c057600080600083815260200190815260200160002090508060405180608001604052908160008201805461079290611240565b80601f01602080910402602001604051908101604052809291908181526020018280546107be90611240565b801561080b5780601f106107e05761010080835404028352916020019161080b565b820191906000526020600020905b8154815290600101906020018083116107ee57829003601f168201915b5050505050815260200160018201805461082490611240565b80601f016020809104026020016040519081016040528092919081815260200182805461085090611240565b801561089d5780601f106108725761010080835404028352916020019161089d565b820191906000526020600020905b81548152906001019060200180831161088057829003601f168201915b505050505081526020016002820160009054906101000a900473ffffffffffffffffffffffffffffffffffffffff1673ffffffffffffffffffffffffffffffffffffffff1673ffffffffffffffffffffffffffffffffffffffff16815260200160038201805461090c90611240565b80601f016020809104026020016040519081016040528092919081815260200182805461093890611240565b80156109855780601f1061095a57610100808354040283529160200191610985565b820191906000526020600020905b81548152906001019060200180831161096857829003601f168201915b5050505050815250508383815181106109a1576109a0611395565b5b60200260200101819052505080806109b89061134c565b915050610756565b508091505090565b60008060008060015481526020019081526020016000209050828160000190805190602001906109f9929190610b33565b5084816001019080519060200190610a12929190610b33565b50858160020160006101000a81548173ffffffffffffffffffffffffffffffffffffffff021916908373ffffffffffffffffffffffffffffffffffffffff16021790555083816003019080519060200190610a6e929190610b33565b503373ffffffffffffffffffffffffffffffffffffffff166001547f62e7b012097b57c6f7e970f7278c53e34e32580c05791cc16b5f6161355cf235858888604051610abc939291906113c4565b60405180910390a360016000815480929190610ad79061134c565b919050555060018054610aea9190611410565b915050949350505050565b60405180608001604052806060815260200160608152602001600073ffffffffffffffffffffffffffffffffffffffff168152602001606081525090565b828054610b3f90611240565b90600052602060002090601f016020900481019282610b615760008555610ba8565b82601f10610b7a57805160ff1916838001178555610ba8565b82800160010185558215610ba8579182015b82811115610ba7578251825591602001919060010190610b8c565b5b509050610bb59190610bb9565b5090565b5b80821115610bd2576000816000905550600101610bba565b5090565b6000604051905090565b600080fd5b600080fd5b600080fd5b600080fd5b6000601f19601f8301169050919050565b7f4e487b7100000000000000000000000000000000000000000000000000000000600052604160045260246000fd5b610c3d82610bf4565b810181811067ffffffffffffffff82111715610c5c57610c5b610c05565b5b80604052505050565b6000610c6f610bd6565b9050610c7b8282610c34565b919050565b600067ffffffffffffffff821115610c9b57610c9a610c05565b5b610ca482610bf4565b9050602081019050919050565b82818337600083830152505050565b6000610cd3610cce84610c80565b610c65565b905082815260208101848484011115610cef57610cee610bef565b5b610cfa848285610cb1565b509392505050565b600082601f830112610d1757610d16610bea565b5b8135610d27848260208601610cc0565b91505092915050565b600060208284031215610d4657610d45610be0565b5b600082013567ffffffffffffffff811115610d6457610d63610be5565b5b610d7084828501610d02565b91505092915050565b600081519050919050565b600082825260208201905092915050565b6000819050602082019050919050565b600081519050919050565b600082825260208201905092915050565b60005b83811015610ddf578082015181840152602081019050610dc4565b83811115610dee576000848401525b50505050565b6000610dff82610da5565b610e098185610db0565b9350610e19818560208601610dc1565b610e2281610bf4565b840191505092915050565b600073ffffffffffffffffffffffffffffffffffffffff82169050919050565b6000610e5882610e2d565b9050919050565b610e6881610e4d565b82525050565b60006080830160008301518482036000860152610e8b8282610df4565b91505060208301518482036020860152610ea58282610df4565b9150506040830151610eba6040860182610e5f565b5060608301518482036060860152610ed28282610df4565b9150508091505092915050565b6000610eeb8383610e6e565b905092915050565b6000602082019050919050565b6000610f0b82610d79565b610f158185610d84565b935083602082028501610f2785610d95565b8060005b85811015610f635784840389528151610f448582610edf565b9450610f4f83610ef3565b925060208a01995050600181019050610f2b565b50829750879550505050505092915050565b60006020820190508181036000830152610f8f8184610f00565b905092915050565b6000819050919050565b610faa81610f97565b8114610fb557600080fd5b50565b600081359050610fc781610fa1565b92915050565b600060208284031215610fe357610fe2610be0565b5b6000610ff184828501610fb8565b91505092915050565b600082825260208201905092915050565b600061101682610da5565b6110208185610ffa565b9350611030818560208601610dc1565b61103981610bf4565b840191505092915050565b61104d81610e4d565b82525050565b6000608082019050818103600083015261106d818761100b565b90508181036020830152611081818661100b565b90506110906040830185611044565b81810360608301526110a2818461100b565b905095945050505050565b6110b681610f97565b82525050565b60006020820190506110d160008301846110ad565b92915050565b6110e081610e4d565b81146110eb57600080fd5b50565b6000813590506110fd816110d7565b92915050565b6000806000806080858703121561111d5761111c610be0565b5b600061112b878288016110ee565b945050602085013567ffffffffffffffff81111561114c5761114b610be5565b5b61115887828801610d02565b935050604085013567ffffffffffffffff81111561117957611178610be5565b5b61118587828801610d02565b925050606085013567ffffffffffffffff8111156111a6576111a5610be5565b5b6111b287828801610d02565b91505092959194509250565b600081905092915050565b60006111d482610da5565b6111de81856111be565b93506111ee818560208601610dc1565b80840191505092915050565b600061120682846111c9565b915081905092915050565b7f4e487b7100000000000000000000000000000000000000000000000000000000600052602260045260246000fd5b6000600282049050600182168061125857607f821691505b6020821081141561126c5761126b611211565b5b50919050565b60008190508160005260206000209050919050565b6000815461129481611240565b61129e81866111be565b945060018216600081146112b957600181146112ca576112fd565b60ff198316865281860193506112fd565b6112d385611272565b60005b838110156112f5578154818901526001820191506020810190506112d6565b838801955050505b50505092915050565b60006113128284611287565b915081905092915050565b7f4e487b7100000000000000000000000000000000000000000000000000000000600052601160045260246000fd5b600061135782610f97565b91507fffffffffffffffffffffffffffffffffffffffffffffffffffffffffffffffff82141561138a5761138961131d565b5b600182019050919050565b7f4e487b7100000000000000000000000000000000000000000000000000000000600052603260045260246000fd5b600060608201905081810360008301526113de818661100b565b905081810360208301526113f2818561100b565b90508181036040830152611406818461100b565b9050949350505050565b600061141b82610f97565b915061142683610f97565b9250828210156114395761143861131d565b5b82820390509291505056fea2646970667358221220bba9d4a6a336e770dcd704fe666d5d3b5c508c85a0e2747de8bbf2f877c4fb7364736f6c63430008090033",
  "immutableReferences": {},
  "source": "// SPDX-License-Identifier: MIT\npragma solidity ^0.8.9;\n\ncontract Market {\n    struct Listing {\n        string name;\n        string description;\n        address owner;\n        string image;\n    }\n\n    mapping (uint256 => Listing) public listings;\n    uint256 public numberOfListings;\n\n    constructor() {\n        numberOfListings = 0;\n    }\n\n    event ListingCreated(uint256 indexed listingId, address indexed owner, string name, string description, string image);    \n\n    function createListing(address _owner, string memory _description, string memory _image, string memory _name) public returns(uint256) {\n        Listing storage listing = listings[numberOfListings];\n\n        listing.name = _name;\n        listing.description = _description;\n        listing.owner = _owner;\n        listing.image = _image;\n\n        emit ListingCreated(numberOfListings, msg.sender, _name, _description, _image);\n        \n        numberOfListings++;\n        return numberOfListings - 1;\n    }\n\n    function getListing(string memory _name) public view returns(Listing[] memory) {\n        uint256 count = 0;\n        for (uint256 i = 0; i < numberOfListings; i++) {\n            if (keccak256(abi.encodePacked(listings[i].name)) == keccak256(abi.encodePacked(_name))) {\n                count++;\n            }\n        }\n        \n        Listing[] memory result = new Listing[](count);\n        uint256 index = 0;\n        for (uint256 i = 0; i < numberOfListings; i++) {\n            if (keccak256(abi.encodePacked(listings[i].name)) == keccak256(abi.encodePacked(_name))) {\n                result[index] = listings[i];\n                index++;\n            }\n        }\n        return result;\n    }\n\n    function getListings() public view returns (Listing[] memory) {\n        Listing[] memory allListings = new Listing[](numberOfListings);\n        for (uint i = 0; i < numberOfListings; i++ ){\n            Listing storage item = listings[i];\n            allListings[i] = item;\n        }\n\n        return allListings;\n    }\n}\n\n\n",
  "sourcePath": "/home/devkamau/Desktop/backend/contracts/Listings.sol",
  "compiler": {
    "name": "solc",
    "version": "0.8.9+commit.e5eed63a.Emscripten.clang"
  },
  "schemaVersion": "3.4.16",
  "updatedAt": "2024-03-22T22:31:20.257Z",
  "devdoc": {
    "kind": "dev",
    "methods": {},
    "version": 1
  },
  "userdoc": {
    "kind": "user",
    "methods": {},
    "version": 1
  }
}